S01700004763634170706C69636174696F6E322E737265635A
S11300004BC0000066C0000064C0000062C0000075
S113001060C000005EC000005CC000005AC0000068
S113002058C0000056C0000054C0000052C0000078
S113003050C000004EC000004CC000004AC0000088
S113004048C0000046C0000044C0000042C0000098
S113005040C000003EC000003CC000003AC00000A8
S113006038C0000036C0000034C0000032C00000B8
S113007030C000002EC000002CC000002AC00000C8
S113008028C0000026C0000024C0000022C00000D8
S113009020C000001EC0000011241FBECFEFD0E21C
S11300A0DEBFCDBF11E0A0E0B1E0E8EFF6E000E094
S11300B00BBF02C007900D92A430B107D9F721E01D
S11300C0A4E0B1E001C01D92A832B207E1F7CAD0A2
S11300D011C396CF4F925F926F927F928F929F92AD
S11300E0AF92BF92CF92DF92EF92FF92CF93DF93C2
S11300F000D000D0CDB7DEB740901C0150901D0158
S113010060901E0170901F014092180150921901D5
S113011060921A0170921B01209104013091050133
S113012040910601509107016091140170911501ED
S11301308091160190911701C5D16B017C016093E8
S11301401401709315018093160190931701209167
S113015008013091090140910A0150910B01C3013A
S1130160B201AFD14B015C01609310017093110196
S113017080931201909313012091000130910101A9
S11301804091020150910301C301B20150D269832D
S11301907A838B839C8320912401309125014091A3
S11301A0260150912701C701B60141D29B01AC0140
S11301B069817A818B819C8185D169837A838B83E0
S11301C09C83209120013091210140912201509182
S11301D02301C501B4012BD29B01AC0169817A8151
S11301E08B819C816FD160930C0170930D0180937E
S11301F00E0190930F01C0920401D0920501E09288
S11302000601F092070140920801509209016092A0
S11302100A0170920B010F900F900F900F90DF91D5
S1130220CF91FF90EF90DF90CF90BF90AF909F90D1
S11302308F907F906F905F904F9008958FEF9FEF16
S11302409093970080939600E0E9F0E08081826AC1
S11302508083E1E9F0E080818161808387B18066F9
S113026087B90895089809980A980B980C98E6DFBE
S113027031DF87B18F6087B9459A469A1092990009
S11302801092980010929B0010929A00C0E9D0E05E
S1130290812C912C54016894B6F8C12CD12C68940B
S11302A0EE24E6F8FE2C40E050E060E870E4A8E9B3
S11302B0B0E021E131E1EAE9F0E08EEE9EEE188251
S11302C0189911C019990FC01A990DC01B990BC028
S11302D01C9909C010921C0110921D0110921E015C
S11302E010921F01E4C0189B11C0199B0FC01A9BE8
S11302F00DC01B9B0BC01C9B09C010921C011092CB
S11303001D0110921E0110921F01D1C0189B11C033
S1130310199B0FC01A9B0DC01B9B0BC01C9909C0D5
S113032040931C0150931D0160931E0170931F01A3
S1130330BEC0189B11C0199B0FC01A9B0DC01B99FE
S11303400BC01C9909C0C0921C01D0921D01E092FF
S11303501E01F0921F01ABC0189B11C0199B0FC066
S11303601A9B0DC01B990BC01C9B09C080921C01D9
S113037090921D01A0921E01B0921F0198C0189B7B
S113038019C0199B17C01A9915C01B9913C01C9B3F
S113039011C00F2E412C512CF0E86F2EFFE37F2E5D
S11303A0F02D40921C0150921D0160921E0170922A
S11303B01F017DC0189B11C0199B0FC01A990DC055
S11303C01B9B0BC01C9B09C010921C0110921D01A9
S11303D010921E0110921F016AC0189B19C019992E
S11303E017C01A9915C01B9B13C01C9B11C00F2E5C
S11303F0412C512CF0E86F2EFFEB7F2EF02D409214
S11304001C0150921D0160921E0170921F014FC089
S1130410189B18C0199916C01A9B14C01B9B12C0B4
S11304201C9B10C00F2E412C512C612CF0EC7F2E04
S1130430F02D40921C0150921D0160921E01709299
S11304401F0135C0189919C0199917C01A9B15C0F6
S11304501B9B13C01C9B11C00F2E412C512CF0E48C
S11304606F2EF0EC7F2EF02D40921C0150921D0156
S113047060921E0170921F011AC0189918C0199B2E
S113048016C01A9B14C01B9B12C01C9B10C00F2EBD
S1130490412C512CF0E86F2EF0EC7F2EF02D409281
S11304A01C0150921D0160921E0170921F01119651
S11304B03C932E9391838083409A4198429A439827
S11304C0FECE5058BB27AA270ED077C068D030F094
S11304D06DD020F031F49F3F11F41EF45DC00EF492
S11304E0E095E7FB53C0E92F79D080F3BA17620790
S11304F073078407950718F071F49EF591C00EF404
S1130500E0950B2EBA2FA02D0B01B90190010C011F
S1130510CA01A0011124FF27591B99F0593F50F437
S1130520503E68F11A16F040A22F232F342F44278F
S1130530585FF3CF469537952795A795F040539587
S1130540C9F77EF41F16BA0B620B730B840BBAF057
S11305509150A1F0FF0FBB1F661F771F881FC2F7C2
S11305600EC0BA0F621F731F841F48F487957795D6
S11305706795B795F7959E3F08F0B3CF9395880F8D
S113058008F09927EE0F97958795089597F99F6737
S113059080E870E060E008959FEF80EC0895002407
S11305A00A941616170618060906089500240A94D4
S11305B012161306140605060895092E0394000C5A
S11305C011F4882352F0BB0F40F4BF2B11F460FFE9
S11305D004C06F5F7F4F8F4F9F4F089557FD905812
S11305E0440F551F59F05F3F71F04795880F97FBF3
S11305F0991F61F09F3F79F08795089512161306AD
S11306001406551FF2CF4695F1DF08C016161706DB
S11306101806991FF1CF8695710561050894089510
S1130620E894BB2766277727CB0197F908950BD069
S1130630C4CFB5DF28F0BADF18F0952309F0A6CFB0
S1130640ABCF1124EECFCADFA0F3959FD1F3950F62
S113065050E0551F629FF001729FBB27F00DB11D42
S1130660639FAA27F00DB11DAA1F649F6627B00DD2
S1130670A11D661F829F2227B00DA11D621F739FBB
S1130680B00DA11D621F839FA00D611D221F749FC9
S11306903327A00D611D231F849F600D211D822F10
S11306A0762F6A2F11249F5750408AF0E1F0882357
S11306B04AF0EE0FFF1FBB1F661F771F881F915064
S11306C05040A9F79E3F510570F060CFAACF5F3F1D
S11306D0ECF3983EDCF3869577956795B795F79597
S11306E0E7959F5FC1F7FE2B880F911D969587951F
S10B06F097F90895F894FFCF77
S10706F80000C841F1
S9030000FC
