:100000004BC0000066C0000064C0000062C0000079
:1000100060C000005EC000005CC000005AC000006C
:1000200058C0000056C0000054C0000052C000007C
:1000300050C000004EC000004CC000004AC000008C
:1000400048C0000046C0000044C0000042C000009C
:1000500040C000003EC000003CC000003AC00000AC
:1000600038C0000036C0000034C0000032C00000BC
:1000700030C000002EC000002CC000002AC00000CC
:1000800028C0000026C0000024C0000022C00000DC
:1000900020C000001EC0000011241FBECFEFD0E220
:1000A000DEBFCDBF11E0A0E0B1E0E4E5F6E000E0A6
:1000B0000BBF02C007900D92A430B107D9F723E01F
:1000C000A4E0B1E001C01D92AC30B207E1F7EFD17E
:1000D000BFC296CF85B5856085BD16BC08952091B9
:1000E00010013091110130930F0120930E014091C6
:1000F0000C0150910D018091040190910501840F34
:10010000951F90930D0180930C0140910601509131
:100110000701F901E41BF50BF0930B01E0930A01D1
:100120004091020150910301249FB001259F700D61
:10013000349F700D1124A0911201B09113018A9F78
:10014000A0018B9F500D9A9F500D1124460F571FF1
:10015000A0910001B0910101EA9FB001EB9F700DE9
:10016000FA9F700D1124460F571F509309014093B9
:1001700008019093050180930401309307012093B7
:10018000060108958FEF9FEF90939700809396005C
:10019000E0E9F0E08081826A8083E1E9F0E080813B
:1001A0008161808387B1806687B90895189B0FC0ED
:1001B000199B0DC01A9B0BC01B9B09C01C9907C043
:1001C00084E090E090931101809310010895189BB2
:1001D0000FC0199B0DC01A9B0BC01B9909C01C991D
:1001E00007C083E090E0909311018093100108957F
:1001F000189B0FC0199B0DC01A9B0BC01B9909C0FF
:100200001C9B07C082E090E0909311018093100145
:100210000895189B0FC0199B0DC01A990BC01B990C
:1002200009C01C9B07C081E090E09093110180936E
:1002300010010895189B0DC0199B0BC01A9909C095
:100240001B9B07C01C9B05C010921101109210014E
:100250000895189B0FC019990DC01A990BC01B9BCC
:1002600009C01C9B07C08FEF9FEF909311018093F3
:1002700010010895189B0FC019990DC01A9B0BC04F
:100280001B9B09C01C9B07C08EEF9FEF9093110131
:1002900080931001089518990FC019990DC01A9BE9
:1002A0000BC01B9B09C01C9B07C08DEF9FEF909359
:1002B000110180931001089518990FC0199B0DC06A
:1002C0001A9B0BC01B9B09C01C9B07C08CEF9FEFA8
:1002D0009093110180931001089518990FC01999F6
:1002E0000DC01A990BC01B9B09C01C9B07C084E65C
:1002F00090E090931101809310010895189B0FC016
:10030000199B0DC01A990BC01B9909C01C9907C0F5
:1003100085E690E090931101809310010895189B59
:100320000FC0199B0DC01A9B0BC01B9B09C01C9BC7
:1003300007C086E690E09093110180931001089524
:1003400018990EC019990CC01A990AC01B9908C0B7
:100350001C9906C087E690E09093110180931001EC
:100360000895409A4198429A43980895409A419836
:100370004298439A08954098419A429A4398089522
:100380004098419A429A43980895409841984298DB
:10039000439808959FDE86B58D3750F080910A030B
:1003A00090910B03019690930B0380930A0316BC64
:1003B00080910A0390910B038D3791054CF0409A80
:1003C0004198429A439816BC10920B0310920A036C
:1003D0000895CF93DF9320911401309115012330BC
:1003E00031050CF451C0E9012297FE01EA5EFE4F8F
:1003F0008081823409F048C0F901EA5EFE4FB901FC
:100400006D5E7E4F40E050E092919C3441F0923519
:1004100019F0923449F406C0465A5F4F05C0425F56
:100420005E4F02C04C545F4FE617F70769F7CA01E9
:1004300068E671E0E6D08A35910589F01CF4892BD5
:10044000F9F407C0843B910581F08E30914099F01A
:1004500017C0F901ED5EFE4F83E5808311C0F901FD
:10046000ED5EFE4F82E580830BC0F901ED5EFE4F2D
:1004700082E4808305C0F901ED5EFE4F8CE4808349
:10048000D0931501C0931401DF91CF91089520916D
:10049000140130911501F901EA5EFE4F80832F5F50
:1004A0003F4F309315012093140193CF089508987E
:1004B00009980A980B980C9865DE11DE87B18F6059
:1004C00087B98DB1806C8DB98EB183608EB9459A34
:1004D000469A109299001092980010929B001092E8
:1004E0009A0076987798C0E9D0E00F2EF8E9CF2EE1
:1004F000D12CF02D0F2EEE24EA94F3EBFF2EF02DED
:100500000AE910E01882609977C0769A77984EDEF3
:1005100080911001909111018536910509F435C043
:100520002CF48436910509F447C051C086369105F4
:1005300021F08736910561F04AC022DF37DE8091D5
:10054000100190911101892BC1F782E4A0DF54C002
:1005500021DF2CDE809110019091110187369105E9
:1005600091F404DF8FE493EC0197F1F700C00000F1
:100570001DDEFCDE8091100190911101892BC1F7E5
:100580008CE485DF39C001DF37C004DF0FDE8091E6
:100590001001909111018636910559F4ECDE06DECA
:1005A0008091100190911101892BC1F782E56FDFD5
:1005B00023C083E56CDF20C0D9DEF8DD8091100117
:1005C00090911101892BC1F78CE461DF15C087DDA3
:1005D0008091080190910901895F9647F601918306
:1005E000808380910801909109019701281B390BA4
:1005F000F80131832083B5DE619B84CF779A7698AA
:1006000081CF97FB072E16F4009406D077FD08D013
:100610000BD007FC05D03EF4909581959F4F08952F
:10062000709561957F4F0895AA1BBB1B51E107C0D0
:10063000AA1FBB1FA617B70710F0A61BB70B881F72
:10064000991F5A95A9F780959095BC01CD01089501
:04065000F894FFCF4C
:040654000A00320066
:00000001FF
